:020000005F2A75
:10000800FF00030E8301C9000A08CA008A01040818
:10001800A0002308CB00CC01A22101302302F0006C
:10002800F101031CF1037008243E84000008CB0092
:1000380047220A302302031C27280130A30001307D
:10004800A100A20A2928A30AA10AB4302202031C8B
:10005800AA28B7010A30370203189E2890289C283E
:100068003708243EF300730884000008F200720881
:10007800F000F00D701073088400700880003708D5
:10008800243EF1003708383E84000008F00071086B
:100098008400F01B51280010522800143708383EFD
:1000A800F300730884000008F2007208F000F00DF5
:1000B800701073088400700880009C283708243E5C
:1000C800F300730884000008F2007208F000F00CD6
:1000D800F01373088400700880003708243EF1008C
:1000E8003708383E84000008F00071088400701852
:1000F8007F288013802880173708383EF30073085C
:1001080084000008F2007208F000F00CF013730885
:100118008400700880009C284408003A031933289A
:100128004408013A031934284408023A031962289A
:10013800B70A2E28A201AE0A08302E02031CAA28EC
:100148004808CB004508CC002122AE018C102008BD
:1001580084004A088A00490E8300FF0E7F0E0900BA
:1001680083120313B701043037020318E328D62893
:100178004D08383EF10037082F3E84000008F00093
:100188007108840070088000DE284D08383EF100B0
:100198003708333E84000008F000710884007008B6
:1001A8008000DE284F08413A0319BC284F08323A2C
:1001B8000319C928CD0A0319CE0AB70AB7280800B7
:1001C8001129003083120313CD180130F000F1011A
:1001D8002F2900304D190130F000F1012F2900308E
:1001E800CD190130F000F1012F2900304D1A0130EE
:1001F800F000F1012F290030CD1A0130F000F10193
:100208002F2900304D1B0130F000F1012F2900305B
:10021800CD1B0130F000F1012F29831203134E0882
:10022800013A0319E5284E08023A0319ED284E0849
:10023800033A0319F3284E08043A0319F9284E081B
:10024800053A0319FF284E08063A031905294E08EE
:08025800073A03190B29080005
:1002600041298312031306157B2986147B298616E0
:100270007B2905157B2905177B2905147B29851703
:100280007B298312031300304E06031D49290130D8
:100290004D060319312900304E06031D5129023045
:1002A0004D060319352900304E06031D5929033028
:1002B0004D060319372900304E06031D612904300D
:1002C0004D060319392900304E06031D69290530F2
:1002D0004D0603193B2900304E06031D71290630D7
:1002E0004D0603193D2900304E06031D79290730BC
:0802F0004D0603193F29080027
:0E02F8008312031343088A00420882000800A4
:100306008316031788018901831287138813103017
:10031600831603138500C0308600D8308700C030AE
:1003260095000F309F0074308F0090010F308100D0
:0E033600C0308B008C1405308312920008003A
:100344002A30831203138504193086042730870466
:100354003A308505D9308605C3298510142A8611BB
:10036400142A8511142A8512142A0612142A071035
:10037400142A8712142A8710142A0711142A061023
:10038400142A00304C06031DC92901304B060319F9
:10039400AF2900304C06031DD12902304B06031946
:1003A400B12900304C06031DD92903304B0603192B
:1003B400B32900304C06031DE12904304B06031910
:1003C400B52900304C06031DE92905304B060319F5
:1003D400B72900304C06031DF12906304B060319DA
:1003E400B92900304C06031DF92907304B060319BF
:1003F400BB2900304C06031D012A08304B060319A3
:10040400BD2900304C06031D092A09304B06031987
:10041400BF2900304C06031D112A0A304B0603196C
:06042400C129C2290800F5
:10042A007C218A110A128000840AC20A0319C30AAB
:08043A00F003031D152A080060
:1004420083120313B7010A30370203182E2A370822
:10045200383E84008001B70A242A4B08203A031D43
:100462003A2A0330CD000030CE004C08CF00B42031
:10047200462ACD01CE014B08CF00B4200530CD0075
:0C0482000030CE004C08CF00B420080071
:10048E00013083120313B7000830370203185E2AB7
:10049E004B08CD003708CE00E42070087104031914
:1004AE005C2A3708CD00CE013021B70A4B2A08004E
:1004BE00013083120313A100A2010130A300A40195
:1004CE00A501A601A701A801A901AA01AB01AC01D2
:1004DE00AD01AE017E30AF009030B0009030B10073
:1004EE007E30B2004630B3008A30B4009230B50090
:1004FE006230B600B701B801B901BA01BB01BC0147
:10050E00BD01BE01BF01C001C10183214130C80040
:10051E003230C5000130C4003230C7004130C60051
:06052E006400972A992ADF
:04400E000C2F00076C
:00000001FF
