:04000000ACEF07F06A
:1000080000C016F001C015F0A3EC07F000C0A3F083
:100018000050610A08E1320E0101196F300E1A6FA3
:100028001B6B90EC07F00001A351620A09E1320E44
:100038000101196F300E1A6F010E1B6F90EC07F05B
:10004800A351630A08E1320E0101196F310E1A6FCC
:100058001B6B90EC07F0A351640A09E1320E010111
:10006800196F310E1A6F020E1B6F90EC07F0A35137
:10007800300A08E1200E0101196F540E1A6F1B6B2C
:1000880090EC07F0A351310A09E1200E0101196F24
:10009800540E1A6F010E1B6F90EC07F0A351320A31
:1000A80008E1200E0101196F310E1A6F1B6B90ECDD
:1000B80007F0A351330A09E1200E0101196F310E2F
:1000C8001A6F010E1B6F90EC07F0A351340A08E178
:1000D800200E0101196F320E1A6F1B6B90EC07F09E
:1000E800A351350A09E1200E0101196F320E1A6F6A
:1000F800010E1B6F90EC07F0A351360A08E1200EA1
:100108000101196F330E1A6F1B6B90EC07F0A351A6
:10011800370A09E1200E0101196F330E1A6F020E1A
:100128001B6F90EC07F097C019F1000E01011A6FD0
:100138000BEC07F000019705006E016A000E015AEA
:10014800980E0024E96E000E0120EA6EEECF19F138
:10015800B8EC06F00B0E0001975D04E3010E976FF3
:10016800A22B01D0972BAE51010A03E1460EAF6FC7
:1001780002D00F0EAF6FAF51A25DD8A021D1A26BF4
:10018800AE6B0101006B0A0E005DD8B0B6D0A6D0E8
:100198000101980EE16E000EE26E0051E126D8B022
:1001A800E22AF60EE96E000EEA6E0051E926D8B092
:1001B800EA2AEECFE6FF9ED00101980E036E000EEC
:1001C800046E00510326D8B0042A03C0E9FF04C016
:1001D800EAFFEECF02F002C000F00036009003C044
:1001E800E1FF04C0E2FF00C0E6FF980EE16E000EDA
:1001F800E26E0051E126D8B0E22AF60EE96E000E52
:10020800EA6E0051E926D8B0EA2AEECF00F000BE27
:1002180002D0E69001D0E680F60E036E000E046E62
:1002280000510326D8B0042A03C0E9FF04C0EAFF3E
:10023800EECF02F002C000F00036009003C0E1FFEC
:1002480004C0E2FF00C0E6FF55D00101980E036E1E
:10025800000E046E00510326D8B0042A03C0E9FF3B
:1002680004C0EAFFEECF02F002C000F00032009EA8
:1002780003C0E1FF04C0E2FF00C0E6FF980EE16E94
:10028800000EE26E0051E126D8B0E22AF60EE96EC1
:10029800000EEA6E0051E926D8B0EA2AEECF00F047
:1002A80000B002D0E69E01D0E68EF60E036E000E78
:1002B800046E00510326D8B0042A03C0E9FF04C025
:1002C800EAFFEECF02F002C000F00032009E03C049
:1002D800E1FF04C0E2FF00C0E6FF0CD00001B0510E
:1002E800000AD8B455D7B051010AD8B465D7B0516F
:1002F800020AABE00101002B46D70001AD2B080E26
:10030800AD5D5EE356D0AB51000A2BE101011351FC
:10031800051904E11451061901E11AD00001B05180
:10032800010A07E1190E0101196F3E0E1A6FD0EC90
:1003380006F00001B051020A07E1190E0101196F18
:100348003C0E1A6FD0EC06F0010E0001AA6F08D01F
:1003580013C119F114C11AF1D0EC06F0ABC0B0F01A
:100368001BD00001AB51010A07E1190E0101196FF9
:100378003E0E1A6FD0EC06F00001AB51020A07E1FD
:10038800190E0101196F3C0E1A6FD0EC06F0010E20
:100398000001AA6FABC0B0F00001010EAE6F0FD024
:1003A80013C119F114C11AF1D0EC06F00001AA6BBF
:1003B80006D0AA51000AA7E0AA51010AF1E0AD6BE4
:0C03C8009E9216C000F015C001F011005C
:1003D4000ED0818437D0818235D0818A33D0808415
:1003E40031D0808C2FD080802DD0808E2BD0000EE9
:1003F40001011D1902E1010E1C19EBE0000E1D198B
:1004040002E1020E1C19E7E0000E1D1902E1030EC1
:100414001C19E3E0000E1D1902E1040E1C19DFE0B3
:10042400000E1D1902E1050E1C19DBE0000E1D195A
:1004340002E1060E1C19D7E0000E1D1902E1070E99
:060444001C19D3E01200B8
:10044A00FF0E0101156FFF0E166FFF0E176FFF0EDD
:10045A00186F460E076F0F0E086F000E096F000E19
:10046A000A6FFF0E0B6FFF0E0C6F000E0D6F000E62
:10047A000E6FFF0E0F6FFF0E106F000E116F000E42
:10048A00126FAC8A900EAB6E948E949C9EAA03D087
:08049A00AECF00F0FBD7120009
:1004A200040E01011F6F206B000E1D1902E1020EE6
:1004B2001C1902E1060E1F6F000E1D1902E1030E48
:1004C2001C1902E1010E206F006B1F51005DD8B0B4
:1004D20074EF06F06BD3F60E1C25E16E000E1D21A3
:1004E200E26EF20EE96E000EEA6E0051E926D8B015
:1004F200EA2AEECFE6FFF2D3F60E1C25E16E000EDD
:100502001D21E26E010EE96E010EEA6E0051E9262E
:10051200D8B0EA2AEECFE6FFE1D3F60E1C25E16E53
:10052200000E1D21E26E690EE96E000EEA6E0051A8
:10053200E926D8B0EA2AEECFE6FFD0D3F60E1C2584
:10054200E16E000E1D21E26E6D0EE96E000EEA6E86
:100552000051E926D8B0EA2AEECFE6FFBFD3F60E65
:100562001C25E16E000E1D21E26E710EE96E000E79
:10057200EA6E0051E926D8B0EA2AEECFE6FFAED302
:10058200F60E1C25E16E000E1D21E26E650EE96E6F
:10059200000EEA6E0051E926D8B0EA2AEECFE6FF55
:1005A2009DD3F60E1C25E16E000E1D21E26E590E42
:1005B200E96E000EEA6E0051E926D8B0EA2AEECFC3
:1005C200E6FF8CD3F60E1C25E16E000E1D21E26EB5
:1005D2005D0EE96E000EEA6E0051E926D8B0EA2AF5
:1005E200EECFE6FF7BD3F60E1C25E16E000E1D2139
:1005F200E26E610EE96E000EEA6E0051E926D8B095
:10060200EA2AEECFE6FF6AD3F60E1C25E16E000E53
:100612001D21E26E870EE96E000EEA6E0051E92698
:10062200D8B0EA2AEECFE6FF59D3F60E1C25E16ECA
:10063200000E1D21E26E8B0EE96E000EEA6E005175
:10064200E926D8B0EA2AEECFE6FF48D3F60E1C25FB
:10065200E16E000E1D21E26E8F0EE96E000EEA6E53
:100662000051E926D8B0EA2AEECFE6FF37D31F5170
:10067200040AD8B41F2BF60E1C25E16E000E1D21B4
:10068200E26E820EE96E000EEA6E0051E926D8B0E3
:10069200EA2AEECFE6FF22D31F51040AD8B41F2B59
:1006A200F60E1C25E16E000E1D21E26E750EE96E3E
:1006B200000EEA6E0051E926D8B0EA2AEECFE6FF34
:1006C2000DD3F60E1C25E16E000E1D21E26E7A0E90
:1006D200E96E000EEA6E0051E926D8B0EA2AEECFA2
:1006E200E6FFFCD2F60E1C25E16E000E1D21E26E25
:1006F2007E0EE96E000EEA6E0051E926D8B0EA2AB3
:10070200EECFE6FFEBD21F51040AD8B41F2BF60E30
:100712001C25E16E000E1D21E26E2A0EE96E000E0E
:10072200EA6E0051E926D8B0EA2AEECFE6FFD6D229
:100732001F51040AD8B41F2BF60E1C25E16E000EC1
:100742001D21E26E2F0EE96E000EEA6E0051E926BF
:10075200D8B0EA2AEECFE6FFC1D2F60E1C25E16E32
:10076200000E1D21E26E340EE96E000EEA6E00519B
:10077200E926D8B0EA2AEECFE6FFB0D21F51040A2A
:10078200D8B41F2BF60E1C25E16E000E1D21E26E61
:10079200250EE96E000EEA6E0051E926D8B0EA2A6B
:1007A200EECFE6FF9BD2F60E1C25E16E000E1D2158
:1007B200E26E170EE96E000EEA6E0051E926D8B01D
:1007C200EA2AEECFE6FF8AD21F51040AD8B41F2BC1
:1007D200F60E1C25E16E000E1D21E26E1B0EE96E67
:1007E200000EEA6E0051E926D8B0EA2AEECFE6FF03
:1007F20075D21F51040AD8B41F2BF60E1C25E16EC8
:10080200000E1D21E26E200EE96E000EEA6E00510E
:10081200E926D8B0EA2AEECFE6FF60D21F51040AD9
:10082200D8B41F2BF60E1C25E16E000E1D21E26EC0
:100832004A0EE96E000EEA6E0051E926D8B0EA2AA5
:10084200EECFE6FF4BD21F51040AD8B41F2BF60E8F
:100852001C25E16E000E1D21E26E4F0EE96E000EA8
:10086200EA6E0051E926D8B0EA2AEECFE6FF36D288
:100872001F51040AD8B41F2BF60E1C25E16E000E80
:100882001D21E26E540EE96E000EEA6E0051E92659
:10089200D8B0EA2AEECFE6FF21D2F60E1C25016E71
:1008A200000E1D21026E2051010A0BE1450EE96E78
:1008B200000EEA6E0051E926D8B0EA2AEECF03F024
:1008C2000AD0380EE96E000EEA6E0051E926D8B061
:1008D200EA2AEECF03F001C0E1FF02C0E2FF03C04B
:1008E200E6FF205302E0050E1F6FF8D1F60E1C251D
:1008F200E16E000E1D21E26E3C0EE96E000EEA6E04
:100902000051E926D8B0EA2AEECFE6FFE7D1F60E8B
:100912001C25006E000E1D21016E20530BE0400EBF
:10092200E96E000EEA6E0051E926D8B0EA2AEECF4F
:1009320004F00AD0930EE96E000EEA6E0051E92629
:10094200D8B0EA2AEECF04F000C0E1FF01C0E2FF16
:1009520004C0E6FF205302E0050E1F6FBFD1F60E62
:100962001C25006E000E1D21016E20530BE0C30EEC
:10097200E96E000EEA6E0051E926D8B0EA2AEECFFF
:1009820005F00AD0C80EE96E000EEA6E0051E926A3
:10099200D8B0EA2AEECF05F000C0E1FF01C0E2FFC5
:1009A20005C0E6FF205302E0050E1F6F97D11F51CD
:1009B200040AD8B41F2BF60E1C25E16E000E1D2171
:1009C200E26ECC0EE96E000EEA6E0051E926D8B056
:1009D200EA2AEECFE6FF82D1F60E1C25006E000E4B
:1009E2001D21016E20530BE0BE0EE96E000EEA6E71
:1009F2000051E926D8B0EA2AEECF06F00AD0B10EAD
:100A0200E96E000EEA6E0051E926D8B0EA2AEECF6E
:100A120006F000C0E1FF01C0E2FF06C0E6FF20537E
:100A220002E0050E1F6F5AD1F60E1C25006E000E55
:100A32001D21016E20530BE0B50EE96E000EEA6E29
:100A42000051E926D8B0EA2AEECF07F00AD0BA0E52
:100A5200E96E000EEA6E0051E926D8B0EA2AEECF1E
:100A620007F000C0E1FF01C0E2FF07C0E6FF20532C
:100A720002E0050E1F6F32D1F60E1C25006E000E2D
:100A82001D21016E20530BE0E40EE96E000EEA6EAA
:100A92000051E926D8B0EA2AEECF08F00AD0E90ED2
:100AA200E96E000EEA6E0051E926D8B0EA2AEECFCE
:100AB20008F000C0E1FF01C0E2FF08C0E6FF2053DA
:100AC20002E0050E1F6F0AD1F60E1C25006E000E05
:100AD2001D21016E20530BE0ED0EE96E000EEA6E51
:100AE2000051E926D8B0EA2AEECF09F00AD0E00E8A
:100AF200E96E000EEA6E0051E926D8B0EA2AEECF7E
:100B020009F000C0E1FF01C0E2FF09C0E6FF205387
:100B120002E0050E1F6FE2D0F60E1C25006E000EDD
:100B22001D21016E20530BE0D10EE96E000EEA6E1C
:100B32000051E926D8B0EA2AEECF0AF00AD0D60E42
:100B4200E96E000EEA6E0051E926D8B0EA2AEECF2D
:100B52000AF000C0E1FF01C0E2FF0AC0E6FF205335
:100B620002E0050E1F6FBAD0F60E1C25E16E000ED4
:100B72001D21E26EDA0EE96E000EEA6E0051E926E0
:100B8200D8B0EA2AEECFE6FFA9D0F60E1C25E16E18
:100B9200000E1D21E26EA40EE96E000EEA6E0051F7
:100BA200E926D8B0EA2AEECFE6FF98D01E51410AD4
:100BB200D8B491D41E51420AD8B49ED41E51430ACD
:100BC200D8B4ABD41E51440AD8B4B8D41E51450A85
:100BD200D8B4C5D41E51460AD8B4D2D41E51470A3D
:100BE200D8B4DFD41E51480AD8B4ECD41E51490AF5
:100BF200D8B4F9D41E514A0AD8B406D51E514B0AAC
:100C0200D8B413D51E514C0AD8B420D51E514D0A62
:100C1200D8B42DD51E514E0AD8B43ED51E514F0A16
:100C2200D8B44FD51E51500AD8B45CD51E51510AC2
:100C3200D8B469D51E51520AD8B47AD51E51530A76
:100C4200D8B48BD51E51540AD8B498D51E51550A22
:100C5200D8B4A9D51E51560AD8B4B6D51E51570AD2
:100C6200D8B4C7D51E51580AD8B4D8D51E51590A7E
:100C7200D8B4E9D51E515A0AD8B4FAD51E51300A51
:100C8200D8B40BD61E51310AD8B430D61E51320A0E
:100C9200D8B43DD61E51330AD8B461D61E51340A97
:100CA200D8B485D61E51350AD8B496D61E51360A06
:100CB200D8B4BAD61E51370AD8B4DED61E51380A75
:100CC200D8B402D71E51390AD8B426D71E513E0ACB
:100CD200D8B44AD71E513C0AD8B457D71C4B1D2B47
:080CE200002B66EF02F0120086
:100CEA002BD0000E01011CB3010E006E016A3AD02E
:100CFA00000E1CB5010E006E016A34D0000E1CB73E
:100D0A00010E006E016A2ED0000E1CB9010E006E93
:100D1A00016A28D0000E1CBB010E006E016A22D0A7
:100D2A00000E1CBD010E006E016A1CD0000E1CBF15
:100D3A00010E006E016A16D001011D51010AD1E0AF
:100D4A001D51020AD5E01D51030AD8E01D51040ABB
:100D5A00DBE01D51050ADEE01D51060AE1E01D51E6
:060D6A00070AE4E012009C
:100D7000010E0101006F080E005D11E219C11CF1A6
:100D800000C11DF1B2DF0050011006E000C11CF1EE
:100D9000000E1D6FEAEC01F00101002BECD71200F0
:100DA0000101006B0A0E005D0BE2F60EE16E000E13
:100DB000E26E0051E126D8B0E22AE66A002BF2D7B3
:100DC0001951190A09E1020E1C6F000E1D6F1AC19C
:100DD0001EF151EC02F01AD01951200A09E1030E5C
:100DE0001C6F000E1D6F1AC11EF151EC02F00ED0E7
:100DF0001C6B1D6B19C11EF151EC02F0050E1C6F2E
:100E0000000E1D6F1AC11EF151EC02F013C105F165
:060E100014C106F11200FE
:100E16002A0E8012190E8112270E82123A0E8016A1
:100E2600D90E811614D080924FD081964DD08096DF
:100E36004BD0809A49D0819847D0829045D0829AEB
:100E460043D0829241D082943FD081903DD0000E13
:100E560001011A1902E1010E1919E5E0000E1A192D
:100E660002E1020E1919E1E0000E1A1902E1030E61
:100E76001919DDE0000E1A1902E1040E1919D9E05C
:100E8600000E1A1902E1050E1919D5E0000E1A19FD
:100E960002E1060E1919D1E0000E1A1902E1070E39
:100EA6001919CDE0000E1A1902E1080E1919C9E048
:100EB600000E1A1902E1090E1919C5E0000E1A19D9
:0A0EC60002E10A0E1919C1E0120042
:100ED000100E926EC00E936ED80E946E0F0EC16EF1
:100EE000070EB46E740ED36E010E9B6EC00EF26EC2
:100EF000FF0ECB6ED08E9D829F829E92050ECA6E93
:100F0000B886B06ACF0EAF6EAC8425EC02F012004A
:100F10000900F5CFE6FF0006FBE10106F9E112004A
:100F200001011951190A02E019C113F11A51190AE4
:100F300002E01AC114F11B51190A02E01BC1ABF007
:060F40000001AC6B120081
:100F4600AECF01F0ABA202D0AB98AB8801C000F0E7
:020F5600120087
:100F58002DEC08F0B9DF410E136F470E146F040033
:040F6800FED7FFD7DA
:10105A0010EE17F0EE0E006E010E016E6C0EF66EBB
:0E106A000F0EF76E000EF86E88EC07F0120005
:040F6C00FC0202FC85
:050F7000F8040204F882
:050F7500FE040804FE6B
:050F7A008080FE808074
:050F7F007C82867E0269
:050F8400FE909894624C
:040F89006492924C90
:040F8D007C82827C64
:040F91000042FE021A
:050F9500468A92926201
:050F9A007C8282827CD4
:050F9F00C6281028C661
:050FA40080403E40808A
:050FA900868A92A2C23D
:040FAE007C82925C53
:040FB200FE1010FE1F
:040FB6000082FE8235
:040FBA00FE90909085
:040FBE007C8282446B
:040FC200FE8244382F
:040FC600FE92929273
:050FCA00FE201008FEEE
:040FCF007C82827C22
:040FD300FE9090609C
:050FD700FE402040FE79
:040FDC000482FC800F
:040FE000FE1028C611
:040FE400FE02020205
:040FE800468A926241
:010FEC000103
:0A0FED00101010101010101010105A
:010FF70000F9
:010FF8006692
:060FF900080CFEFE0C08CE
:010FFF0000F1
:0110000000EF
:0110010001ED
:0110020000ED
:0110030000EC
:0110040000EB
:0110050000EA
:04100600E4A2A29C22
:05100A003C5292920C23
:04100F003C52920CB1
:05101300E4A2A2A29C72
:05101800448292926C7D
:04101D004492926CFB
:05102100182848FE083C
:05102600609292947835
:04102B0060929478C3
:06102F002060FEFE6020BF
:041035006C92926CBB
:05103900C0808E90E074
:04103E00C08E90E0F0
:051042006C9292926C1B
:041047007E90907E89
:0A104B00001010100000101010003B
:01105500009A
:04105600FE92926C08
:020000040030CA
:0D00010008001EFF0180FF00000FE00F400F
:00000001FF
