:02000000F52ADF
:10000800FF00030E8301EA000A08E9008A010408D8
:10001800A0005908ED00EE016521162823282328A1
:10002800232823286808003A031912286808013A87
:10003800031913286808023A0319142815286408B4
:10004800203A031D2C280430CF000730CE0030287A
:100058000130CF000A30CE0064088316A000831256
:1000680065088316A1000130A2000030A300D32147
:100078004E085902031C46284F08D9000130CD000C
:10008800D80A4F28D90A05304D02031C4E280130E2
:10009800CD004F28CD0A4F08013A031D58285808AB
:1000A8005A3C0318582862284F08043A031D61284F
:1000B8005808B43A031D612862286B285A08013A87
:1000C800031D69280830DA006A28DA03D8018C1081
:1000D8002008840069088A006A0E8300FF0E7F0EDC
:0200E80009000D
:1000EA008C28831203130615C62883128614C62881
:1000FA0083128616C62883120515C6288312051789
:10010A00C62883120514C62883128517C628031326
:10011A00003083162506031D94280130240603198E
:10012A00762800302506031D9C2802302406031970
:10013A007A2800302506031DA42803302406031953
:10014A007D2800302506031DAC2804302406031937
:10015A00802800302506031DB4280530240603191B
:10016A00832800302506031DBC28063024060319FF
:10017A00862800302506031DC428073024060319E3
:04018A0089280800B8
:10018E00FA2800308316031324180130F000F10111
:10019E001C290030A4180130F000F1011C29003098
:1001AE0024190130F000F1011C290030A41901308E
:1001BE00F000F1011C290030241A0130F000F10189
:1001CE001C290030A41A0130F000F1011C29003066
:1001DE00241B0130F000F1011C290030A41B01305A
:1001EE00F000F1011C29831603132508003A0319A8
:1001FE00C8282508013A0319D0282508023A031900
:10020E00D6282508033A0319DC282508043A0319D1
:10021E00E2282508053A0319E8282508063A0319A5
:0C022E00EE282508073A0319F428080000
:10023A00013083120313DB005A085B0203183E29BC
:10024A006F088316A40083125B088316A500C720D3
:10025A007008710403193A2983125B085A0283163B
:10026A00A400A501031CA503752083120313DB0A4E
:04027A00212908002E
:0E027E00831203136C088A006B0882000800CC
:10028C008316031788018901831287138813103092
:10029C00831603138500C0308600D8308700C03029
:1002AC0095000F309F0074308F0090010F3081004B
:0E02BC00C0308B008C140530831292000800B5
:1002CA002A308312031385041930860427308704E1
:1002DA003A308505D930860589298510D2298611B3
:1002EA00D2298511D2298512D2294F08043A031D31
:1002FA007F290612D2290710D2298712D2298710FC
:10030A00D2290711D229D22900306E06031D8F295E
:10031A0001306D060319722900306E06031D9729F4
:10032A0002306D060319742900306E06031D9F29D9
:10033A0003306D060319762900306E06031DA729BE
:10034A0004306D060319782900306E06031DAF29A3
:10035A0005306D0603197A2900306E06031DB72988
:10036A0006306D060319802900306E06031DBF2969
:10037A0007306D060319822900306E06031DC7294E
:10038A0008306D060319842900306E06031DCF2933
:0C039A0009306D06031986298829080027
:1003A600831203134F08013A031DE229063059024E
:1003B6000318E229831620088312ED00E629831626
:1003C60021088312ED00AB2A01304D02F000F10145
:1003D600031CF1037008543E84000008EF001D2141
:1003E600E82A01304D02F000F101031CF103700808
:1003F600503E84000008EF001D21E82A01304D021E
:10040600F000F101031CF10370082D3E8400000882
:10041600EF001D21E82A01304D02F000F101031C16
:10042600F1037008313E84000008EF001D21E82A20
:1004360001304D02F000F101031CF1037008213E6A
:1004460084000008EF001D21E82A01304D02F0006B
:10045600F101031CF1037008253E84000008EF003B
:100466001D21E82A01304D02F000F101031CF103C1
:100476007008293E84000008EF001D21E82A01309B
:100486004D02F000F101031CF1037008413E8400A7
:100496000008EF001D21E82A01304D02F000F101AD
:1004A600031CF1037008453E84000008EF001D217F
:1004B600E82A01304D02F000F101031CF103700837
:1004C600493E84000008EF001D21E82A01304D0254
:1004D600F000F101031CF1037008353E84000008AA
:1004E600EF001D21E82A01304D02F000F101031C46
:1004F600F1037008393E84000008EF001D21E82A48
:1005060001304D02F000F101031CF10370083D3E7D
:1005160084000008EF001D21E82A01304D02F0009A
:10052600F101031CF1037008603E84000008EF002F
:100536001D21E82A01304D02F000F101031CF103F0
:1005460070085C3E84000008EF001D21E82AE82AB6
:100556006D08413A0319E7296D08423A0319F4294F
:100566006D08433A0319012A6D08443A03190E2A05
:100576006D08453A03191B2A6D08303A0319282AD3
:100586006D08313A0319352A6D08323A0319422AA1
:100596006D08333A03194F2A6D08343A03195C2A59
:1005A6006D08353A0319692A6D08363A0319762A11
:1005B6006D08373A0319832A6D08383A0319902AC9
:0C05C6006D08393A03199D2AAA2A080082
:1005D2003F218A110A128000840AEB0A0319EC0AED
:0805E200F003031DE92A0800E3
:1005EA004C2346213230E4003930E5000130E8007E
:0E05FA004130E7004230E6006400012B032B85
:1006980021308400433083120313F0000930EB004B
:0806A8000330EC00E922080018
:08061200FE349234923492345C
:08061A007C34823482347C340C
:0806220008348434FE348034F6
:08062A007E34823482347C34FA
:08063200FE34823444343834F4
:08063A000034003400340034E8
:080642000034003400340034E0
:08064A000034003400340034D8
:08065200C434A23492348C344C
:08065A000034003400340034C8
:080662000034003400340034C0
:02066A00013459
:02066C000A344E
:02066E00013455
:08067000FE34923492346C3424
:08067800FC3412341234FC348E
:02068000003444
:02068200013441
:02068400083438
:0206860000343E
:080688004C34923492347C34AE
:08069000003400340034003492
:04400E000C2F00076C
:00000001FF
